{
  "contractName": "Insurance",
  "abi": [
    {
      "inputs": [],
      "stateMutability": "nonpayable",
      "type": "constructor"
    },
    {
      "anonymous": false,
      "inputs": [
        {
          "indexed": false,
          "internalType": "uint256",
          "name": "id",
          "type": "uint256"
        },
        {
          "indexed": false,
          "internalType": "uint256",
          "name": "amount",
          "type": "uint256"
        }
      ],
      "name": "ClaimPaid",
      "type": "event"
    },
    {
      "anonymous": false,
      "inputs": [
        {
          "indexed": false,
          "internalType": "uint256",
          "name": "id",
          "type": "uint256"
        },
        {
          "indexed": false,
          "internalType": "enum Insurance.ClaimStatus",
          "name": "status",
          "type": "uint8"
        }
      ],
      "name": "ClaimReviewed",
      "type": "event"
    },
    {
      "anonymous": false,
      "inputs": [
        {
          "indexed": false,
          "internalType": "uint256",
          "name": "id",
          "type": "uint256"
        },
        {
          "indexed": false,
          "internalType": "uint256",
          "name": "policyId",
          "type": "uint256"
        }
      ],
      "name": "ClaimSubmitted",
      "type": "event"
    },
    {
      "anonymous": false,
      "inputs": [
        {
          "indexed": false,
          "internalType": "uint256",
          "name": "id",
          "type": "uint256"
        },
        {
          "indexed": false,
          "internalType": "address",
          "name": "policyHolder",
          "type": "address"
        }
      ],
      "name": "PolicyCreated",
      "type": "event"
    },
    {
      "inputs": [],
      "name": "claimCount",
      "outputs": [
        {
          "internalType": "uint256",
          "name": "",
          "type": "uint256"
        }
      ],
      "stateMutability": "view",
      "type": "function",
      "constant": true
    },
    {
      "inputs": [
        {
          "internalType": "uint256",
          "name": "",
          "type": "uint256"
        }
      ],
      "name": "claims",
      "outputs": [
        {
          "internalType": "uint256",
          "name": "id",
          "type": "uint256"
        },
        {
          "internalType": "uint256",
          "name": "policyId",
          "type": "uint256"
        },
        {
          "internalType": "string",
          "name": "description",
          "type": "string"
        },
        {
          "internalType": "uint256",
          "name": "amount",
          "type": "uint256"
        },
        {
          "internalType": "enum Insurance.ClaimStatus",
          "name": "status",
          "type": "uint8"
        },
        {
          "internalType": "uint256",
          "name": "dateSubmitted",
          "type": "uint256"
        }
      ],
      "stateMutability": "view",
      "type": "function",
      "constant": true
    },
    {
      "inputs": [],
      "name": "insurer",
      "outputs": [
        {
          "internalType": "address",
          "name": "",
          "type": "address"
        }
      ],
      "stateMutability": "view",
      "type": "function",
      "constant": true
    },
    {
      "inputs": [
        {
          "internalType": "uint256",
          "name": "",
          "type": "uint256"
        }
      ],
      "name": "policies",
      "outputs": [
        {
          "internalType": "uint256",
          "name": "id",
          "type": "uint256"
        },
        {
          "internalType": "address",
          "name": "policyHolder",
          "type": "address"
        },
        {
          "internalType": "uint256",
          "name": "premium",
          "type": "uint256"
        },
        {
          "internalType": "uint256",
          "name": "coverageAmount",
          "type": "uint256"
        },
        {
          "internalType": "uint256",
          "name": "startDate",
          "type": "uint256"
        },
        {
          "internalType": "uint256",
          "name": "endDate",
          "type": "uint256"
        },
        {
          "internalType": "bool",
          "name": "active",
          "type": "bool"
        }
      ],
      "stateMutability": "view",
      "type": "function",
      "constant": true
    },
    {
      "inputs": [
        {
          "internalType": "uint256",
          "name": "",
          "type": "uint256"
        },
        {
          "internalType": "uint256",
          "name": "",
          "type": "uint256"
        }
      ],
      "name": "policyClaims",
      "outputs": [
        {
          "internalType": "uint256",
          "name": "",
          "type": "uint256"
        }
      ],
      "stateMutability": "view",
      "type": "function",
      "constant": true
    },
    {
      "inputs": [],
      "name": "policyCount",
      "outputs": [
        {
          "internalType": "uint256",
          "name": "",
          "type": "uint256"
        }
      ],
      "stateMutability": "view",
      "type": "function",
      "constant": true
    },
    {
      "stateMutability": "payable",
      "type": "receive",
      "payable": true
    },
    {
      "inputs": [
        {
          "internalType": "address",
          "name": "_policyHolder",
          "type": "address"
        },
        {
          "internalType": "uint256",
          "name": "_premium",
          "type": "uint256"
        },
        {
          "internalType": "uint256",
          "name": "_coverageAmount",
          "type": "uint256"
        },
        {
          "internalType": "uint256",
          "name": "_durationInDays",
          "type": "uint256"
        }
      ],
      "name": "createPolicy",
      "outputs": [],
      "stateMutability": "nonpayable",
      "type": "function"
    },
    {
      "inputs": [
        {
          "internalType": "uint256",
          "name": "_policyId",
          "type": "uint256"
        },
        {
          "internalType": "string",
          "name": "_description",
          "type": "string"
        },
        {
          "internalType": "uint256",
          "name": "_amount",
          "type": "uint256"
        }
      ],
      "name": "submitClaim",
      "outputs": [],
      "stateMutability": "nonpayable",
      "type": "function"
    },
    {
      "inputs": [
        {
          "internalType": "uint256",
          "name": "_claimId",
          "type": "uint256"
        },
        {
          "internalType": "bool",
          "name": "_approve",
          "type": "bool"
        }
      ],
      "name": "reviewClaim",
      "outputs": [],
      "stateMutability": "nonpayable",
      "type": "function"
    },
    {
      "inputs": [
        {
          "internalType": "uint256",
          "name": "_claimId",
          "type": "uint256"
        }
      ],
      "name": "payClaim",
      "outputs": [],
      "stateMutability": "payable",
      "type": "function",
      "payable": true
    },
    {
      "inputs": [
        {
          "internalType": "uint256",
          "name": "_policyId",
          "type": "uint256"
        }
      ],
      "name": "getClaimsForPolicy",
      "outputs": [
        {
          "internalType": "uint256[]",
          "name": "",
          "type": "uint256[]"
        }
      ],
      "stateMutability": "view",
      "type": "function",
      "constant": true
    }
  ],
  "bytecode": "0x608060405234801561001057600080fd5b50600080546001600160a01b0319163317905561104c806100326000396000f3fe6080604052600436106100a05760003560e01c8063d3e8948311610064578063d3e8948314610178578063d70356cc146101ab578063dbc837c5146101be578063de54d429146101e0578063ec1b350e146101f5578063f908381914610215576100a7565b80631ef58520146100ac578063560eb394146100ce578063824ba25f146101045780638da4d3c914610131578063a888c2cd14610146576100a7565b366100a757005b600080fd5b3480156100b857600080fd5b506100cc6100c7366004610b2a565b610235565b005b3480156100da57600080fd5b506100ee6100e9366004610c12565b610341565b6040516100fb9190610e59565b60405180910390f35b34801561011057600080fd5b5061012461011f366004610b12565b610372565b6040516100fb9190610c69565b34801561013d57600080fd5b506100ee6103d4565b34801561015257600080fd5b50610166610161366004610b12565b6103da565b6040516100fb96959493929190610edd565b34801561018457600080fd5b50610198610193366004610b12565b61049d565b6040516100fb9796959493929190610e79565b6100cc6101b9366004610b12565b6104e8565b3480156101ca57600080fd5b506101d36106a4565b6040516100fb9190610c55565b3480156101ec57600080fd5b506100ee6106b3565b34801561020157600080fd5b506100cc610210366004610b5d565b6106b9565b34801561022157600080fd5b506100cc610230366004610acd565b6108f1565b6000546001600160a01b031633146102685760405162461bcd60e51b815260040161025f90610cad565b60405180910390fd5b600082815260046020526040812090600482015460ff16600381111561029e57634e487b7160e01b600052602160045260246000fd5b146102bb5760405162461bcd60e51b815260040161025f90610cf1565b816102c75760026102ca565b60015b60048201805460ff191660018360038111156102f657634e487b7160e01b600052602160045260246000fd5b021790555060048101546040517f0c45ba56896d780e3742c25ea7ee2f5feb08e605baa2fae2166dd0ea24f844849161033491869160ff1690610eb4565b60405180910390a1505050565b6005602052816000526040600020818154811061035d57600080fd5b90600052602060002001600091509150505481565b6000818152600560209081526040918290208054835181840281018401909452808452606093928301828280156103c857602002820191906000526020600020905b8154815260200190600101908083116103b4575b50505050509050919050565b60025481565b6004602052600090815260409020805460018201546002830180549293919261040290610f94565b80601f016020809104026020016040519081016040528092919081815260200182805461042e90610f94565b801561047b5780601f106104505761010080835404028352916020019161047b565b820191906000526020600020905b81548152906001019060200180831161045e57829003601f168201915b50505050600383015460048401546005909401549293909260ff909116915086565b6003602081905260009182526040909120805460018201546002830154938301546004840154600585015460069095015493956001600160a01b039093169492939192909160ff1687565b6000546001600160a01b031633146105125760405162461bcd60e51b815260040161025f90610cad565b60008181526004602081815260408084206001808201548652600380855295839020835160e08101855281548152818301546001600160a01b031695810195909552600281015493850193909352948201546060840152928101546080830152600581015460a08301526006015460ff16151560c08201529091600483015460ff1660038111156105b357634e487b7160e01b600052602160045260246000fd5b146105d05760405162461bcd60e51b815260040161025f90610d6c565b8060600151826003015411156105f85760405162461bcd60e51b815260040161025f90610df2565b816003015447101561061c5760405162461bcd60e51b815260040161025f90610e22565b80602001516001600160a01b03166108fc83600301549081150290604051600060405180830381858888f1935050505015801561065d573d6000803e3d6000fd5b5060048201805460ff191660039081179091558201546040517fb0727183796e52c5bb00a257c1eb36d8e94dbee5d6d87e259287e3372ae39ace9161033491869190610ecf565b6000546001600160a01b031681565b60015481565b600083815260036020818152604092839020835160e0810185528154815260018201546001600160a01b03169281019290925260028101549382019390935290820154606082015260048201546080820152600582015460a082015260069091015460ff16151560c082018190526107435760405162461bcd60e51b815260040161025f90610d98565b428160a0015110156107675760405162461bcd60e51b815260040161025f90610dc6565b80602001516001600160a01b0316336001600160a01b03161461079c5760405162461bcd60e51b815260040161025f90610d28565b600280549060006107ac83610fcf565b91905055506040518060c001604052806002548152602001858152602001848152602001838152602001600060038111156107f757634e487b7160e01b600052602160045260246000fd5b8152426020918201526002805460009081526004835260409081902084518155848401516001820155908401518051919361083793850192910190610a34565b506060820151816003015560808201518160040160006101000a81548160ff0219169083600381111561087a57634e487b7160e01b600052602160045260246000fd5b021790555060a091909101516005918201556000858152602091825260408082206002805482546001810184559285529490932001929092555490517f675e9cd1ef5a9bb6971c9f1099eced3c6607be0407bc871bc50a8a7b36832e74916108e3918790610ecf565b60405180910390a150505050565b6000546001600160a01b0316331461091b5760405162461bcd60e51b815260040161025f90610cad565b6001805490600061092b83610fcf565b91905055506040518060e001604052806001548152602001856001600160a01b0316815260200184815260200183815260200142815260200182620151806109739190610f75565b61097d9042610f5d565b815260016020918201819052805460009081526003808452604091829020855181559385015184840180546001600160a01b0319166001600160a01b039092169190911790558482015160028501556060850151908401556080840151600484015560a0840151600584015560c0909301516006909201805460ff1916921515929092179091555490517f692975d6d42aec50e0f6ff672acde3bf011e71355ed86dd49de0a1f533950cba916108e3918790610e62565b828054610a4090610f94565b90600052602060002090601f016020900481019282610a625760008555610aa8565b82601f10610a7b57805160ff1916838001178555610aa8565b82800160010185558215610aa8579182015b82811115610aa8578251825591602001919060010190610a8d565b50610ab4929150610ab8565b5090565b5b80821115610ab45760008155600101610ab9565b60008060008060808587031215610ae2578384fd5b84356001600160a01b0381168114610af8578485fd5b966020860135965060408601359560600135945092505050565b600060208284031215610b23578081fd5b5035919050565b60008060408385031215610b3c578182fd5b8235915060208301358015158114610b52578182fd5b809150509250929050565b600080600060608486031215610b71578283fd5b8335925060208085013567ffffffffffffffff80821115610b90578485fd5b818701915087601f830112610ba3578485fd5b813581811115610bb557610bb5611000565b604051601f8201601f1916810185018381118282101715610bd857610bd8611000565b60405281815283820185018a1015610bee578687fd5b81858501868301379081019093019490945250929592945050506040919091013590565b60008060408385031215610c24578182fd5b50508035926020909101359150565b60048110610c5157634e487b7160e01b600052602160045260246000fd5b9052565b6001600160a01b0391909116815260200190565b6020808252825182820181905260009190848201906040850190845b81811015610ca157835183529284019291840191600101610c85565b50909695505050505050565b60208082526024908201527f4f6e6c7920696e73757265722063616e20706572666f726d20746869732061636040820152633a34b7b760e11b606082015260800190565b60208082526017908201527f436c61696d20616c72656164792070726f636573736564000000000000000000604082015260600190565b60208082526024908201527f4f6e6c7920706f6c69637920686f6c6465722063616e207375626d697420636c60408201526361696d7360e01b606082015260800190565b60208082526012908201527110db185a5b481b9bdd08185c1c1c9bdd995960721b604082015260600190565b602080825260149082015273506f6c696379206973206e6f742061637469766560601b604082015260600190565b602080825260129082015271141bdb1a58de481a185cc8195e1c1a5c995960721b604082015260600190565b602080825260169082015275436c61696d206578636565647320636f76657261676560501b604082015260600190565b6020808252601d908201527f496e73756666696369656e7420636f6e74726163742062616c616e6365000000604082015260600190565b90815260200190565b9182526001600160a01b0316602082015260400190565b9687526001600160a01b0395909516602087015260408601939093526060850191909152608084015260a0830152151560c082015260e00190565b82815260408101610ec86020830184610c33565b9392505050565b918252602082015260400190565b60008782526020878184015260c0604084015286518060c0850152825b81811015610f165788810183015185820160e001528201610efa565b81811115610f27578360e083870101525b5060608401879052601f01601f1916830160e0019150610f4c90506080830185610c33565b8260a0830152979650505050505050565b60008219821115610f7057610f70610fea565b500190565b6000816000190483118215151615610f8f57610f8f610fea565b500290565b600281046001821680610fa857607f821691505b60208210811415610fc957634e487b7160e01b600052602260045260246000fd5b50919050565b6000600019821415610fe357610fe3610fea565b5060010190565b634e487b7160e01b600052601160045260246000fd5b634e487b7160e01b600052604160045260246000fdfea2646970667358221220d27018dfb81630830a5598a59c04880b7d60c5399faad35777aac6ffd1bf796a64736f6c63430008000033",
  "immutableReferences": {},
  "source": "// SPDX-License-Identifier: MIT\r\npragma solidity ^0.8.0;\r\n\r\ncontract Insurance {\r\n    address public insurer;\r\n    \r\n    enum ClaimStatus { Pending, Approved, Rejected, Paid }\r\n    \r\n    struct Policy {\r\n        uint id;\r\n        address policyHolder;\r\n        uint premium;\r\n        uint coverageAmount;\r\n        uint startDate;\r\n        uint endDate;\r\n        bool active;\r\n    }\r\n    \r\n    struct Claim {\r\n        uint id;\r\n        uint policyId;\r\n        string description;\r\n        uint amount;\r\n        ClaimStatus status;\r\n        uint dateSubmitted;\r\n    }\r\n    \r\n    uint public policyCount;\r\n    uint public claimCount;\r\n    \r\n    mapping(uint => Policy) public policies;\r\n    mapping(uint => Claim) public claims;\r\n    mapping(uint => uint[]) public policyClaims; // Policy ID to claim IDs\r\n    \r\n    event PolicyCreated(uint id, address policyHolder);\r\n    event ClaimSubmitted(uint id, uint policyId);\r\n    event ClaimReviewed(uint id, ClaimStatus status);\r\n    event ClaimPaid(uint id, uint amount);\r\n    \r\n    constructor() {\r\n        insurer = msg.sender;\r\n    }\r\n    \r\n    modifier onlyInsurer() {\r\n        require(msg.sender == insurer, \"Only insurer can perform this action\");\r\n        _;\r\n    }\r\n    \r\n    function createPolicy(\r\n        address _policyHolder,\r\n        uint _premium,\r\n        uint _coverageAmount,\r\n        uint _durationInDays\r\n    ) external onlyInsurer {\r\n        policyCount++;\r\n        policies[policyCount] = Policy(\r\n            policyCount,\r\n            _policyHolder,\r\n            _premium,\r\n            _coverageAmount,\r\n            block.timestamp,\r\n            block.timestamp + (_durationInDays * 1 days),\r\n            true\r\n        );\r\n        \r\n        emit PolicyCreated(policyCount, _policyHolder);\r\n    }\r\n    \r\n    function submitClaim(uint _policyId, string memory _description, uint _amount) external {\r\n        Policy memory policy = policies[_policyId];\r\n        require(policy.active, \"Policy is not active\");\r\n        require(policy.endDate >= block.timestamp, \"Policy has expired\");\r\n        require(msg.sender == policy.policyHolder, \"Only policy holder can submit claims\");\r\n        \r\n        claimCount++;\r\n        claims[claimCount] = Claim(\r\n            claimCount,\r\n            _policyId,\r\n            _description,\r\n            _amount,\r\n            ClaimStatus.Pending,\r\n            block.timestamp\r\n        );\r\n        \r\n        policyClaims[_policyId].push(claimCount);\r\n        emit ClaimSubmitted(claimCount, _policyId);\r\n    }\r\n    \r\n    function reviewClaim(uint _claimId, bool _approve) external onlyInsurer {\r\n        Claim storage claim = claims[_claimId];\r\n        require(claim.status == ClaimStatus.Pending, \"Claim already processed\");\r\n        \r\n        claim.status = _approve ? ClaimStatus.Approved : ClaimStatus.Rejected;\r\n        emit ClaimReviewed(_claimId, claim.status);\r\n    }\r\n    \r\n    function payClaim(uint _claimId) external payable onlyInsurer {\r\n        Claim storage claim = claims[_claimId];\r\n        Policy memory policy = policies[claim.policyId];\r\n        \r\n        require(claim.status == ClaimStatus.Approved, \"Claim not approved\");\r\n        require(claim.amount <= policy.coverageAmount, \"Claim exceeds coverage\");\r\n        require(address(this).balance >= claim.amount, \"Insufficient contract balance\");\r\n        \r\n        payable(policy.policyHolder).transfer(claim.amount);\r\n        claim.status = ClaimStatus.Paid;\r\n        \r\n        emit ClaimPaid(_claimId, claim.amount);\r\n    }\r\n    \r\n    function getClaimsForPolicy(uint _policyId) external view returns (uint[] memory) {\r\n        return policyClaims[_policyId];\r\n    }\r\n    \r\n    // Accept payments to the contract\r\n    receive() external payable {}\r\n}",
  "sourcePath": "C:\\Users\\HP ELITEBOOK 1030 G4\\Blockchain-insurance-demo\\backend\\contracts\\Insurance.sol",
  "compiler": {
    "name": "solc",
    "version": "0.8.0+commit.c7dfd78e.Emscripten.clang"
  },
  "schemaVersion": "3.4.16",
  "updatedAt": "2025-07-17T21:15:52.034Z",
  "networkType": "ethereum",
  "devdoc": {
    "kind": "dev",
    "methods": {},
    "version": 1
  },
  "userdoc": {
    "kind": "user",
    "methods": {},
    "version": 1
  }
}